{
  "_format": "hh-sol-artifact-1",
  "contractName": "SimpleSwap",
  "sourceName": "contracts/SimpleSwap.sol",
  "abi": [
    {
      "inputs": [
        {
          "internalType": "address",
          "name": "_token0",
          "type": "address"
        },
        {
          "internalType": "address",
          "name": "_token1",
          "type": "address"
        }
      ],
      "stateMutability": "nonpayable",
      "type": "constructor"
    },
    {
      "inputs": [
        {
          "internalType": "address",
          "name": "spender",
          "type": "address"
        },
        {
          "internalType": "uint256",
          "name": "allowance",
          "type": "uint256"
        },
        {
          "internalType": "uint256",
          "name": "needed",
          "type": "uint256"
        }
      ],
      "name": "ERC20InsufficientAllowance",
      "type": "error"
    },
    {
      "inputs": [
        {
          "internalType": "address",
          "name": "sender",
          "type": "address"
        },
        {
          "internalType": "uint256",
          "name": "balance",
          "type": "uint256"
        },
        {
          "internalType": "uint256",
          "name": "needed",
          "type": "uint256"
        }
      ],
      "name": "ERC20InsufficientBalance",
      "type": "error"
    },
    {
      "inputs": [
        {
          "internalType": "address",
          "name": "approver",
          "type": "address"
        }
      ],
      "name": "ERC20InvalidApprover",
      "type": "error"
    },
    {
      "inputs": [
        {
          "internalType": "address",
          "name": "receiver",
          "type": "address"
        }
      ],
      "name": "ERC20InvalidReceiver",
      "type": "error"
    },
    {
      "inputs": [
        {
          "internalType": "address",
          "name": "sender",
          "type": "address"
        }
      ],
      "name": "ERC20InvalidSender",
      "type": "error"
    },
    {
      "inputs": [
        {
          "internalType": "address",
          "name": "spender",
          "type": "address"
        }
      ],
      "name": "ERC20InvalidSpender",
      "type": "error"
    },
    {
      "inputs": [
        {
          "internalType": "address",
          "name": "token",
          "type": "address"
        }
      ],
      "name": "SafeERC20FailedOperation",
      "type": "error"
    },
    {
      "anonymous": false,
      "inputs": [
        {
          "indexed": true,
          "internalType": "address",
          "name": "owner",
          "type": "address"
        },
        {
          "indexed": true,
          "internalType": "address",
          "name": "spender",
          "type": "address"
        },
        {
          "indexed": false,
          "internalType": "uint256",
          "name": "value",
          "type": "uint256"
        }
      ],
      "name": "Approval",
      "type": "event"
    },
    {
      "anonymous": false,
      "inputs": [
        {
          "indexed": true,
          "internalType": "address",
          "name": "provider",
          "type": "address"
        },
        {
          "indexed": false,
          "internalType": "uint256",
          "name": "amountA",
          "type": "uint256"
        },
        {
          "indexed": false,
          "internalType": "uint256",
          "name": "amountB",
          "type": "uint256"
        },
        {
          "indexed": false,
          "internalType": "uint256",
          "name": "liquidity",
          "type": "uint256"
        }
      ],
      "name": "LiquidityAdded",
      "type": "event"
    },
    {
      "anonymous": false,
      "inputs": [
        {
          "indexed": true,
          "internalType": "address",
          "name": "provider",
          "type": "address"
        },
        {
          "indexed": false,
          "internalType": "uint256",
          "name": "amountA",
          "type": "uint256"
        },
        {
          "indexed": false,
          "internalType": "uint256",
          "name": "amountB",
          "type": "uint256"
        },
        {
          "indexed": false,
          "internalType": "uint256",
          "name": "liquidity",
          "type": "uint256"
        }
      ],
      "name": "LiquidityRemoved",
      "type": "event"
    },
    {
      "anonymous": false,
      "inputs": [
        {
          "indexed": true,
          "internalType": "address",
          "name": "from",
          "type": "address"
        },
        {
          "indexed": true,
          "internalType": "address",
          "name": "to",
          "type": "address"
        },
        {
          "indexed": false,
          "internalType": "uint256",
          "name": "value",
          "type": "uint256"
        }
      ],
      "name": "Transfer",
      "type": "event"
    },
    {
      "inputs": [
        {
          "internalType": "address",
          "name": "tokenA",
          "type": "address"
        },
        {
          "internalType": "address",
          "name": "tokenB",
          "type": "address"
        },
        {
          "internalType": "uint256",
          "name": "amountADesired",
          "type": "uint256"
        },
        {
          "internalType": "uint256",
          "name": "amountBDesired",
          "type": "uint256"
        },
        {
          "internalType": "uint256",
          "name": "amountAMin",
          "type": "uint256"
        },
        {
          "internalType": "uint256",
          "name": "amountBMin",
          "type": "uint256"
        },
        {
          "internalType": "address",
          "name": "to",
          "type": "address"
        },
        {
          "internalType": "uint256",
          "name": "deadline",
          "type": "uint256"
        }
      ],
      "name": "addLiquidity",
      "outputs": [
        {
          "internalType": "uint256",
          "name": "amountA",
          "type": "uint256"
        },
        {
          "internalType": "uint256",
          "name": "amountB",
          "type": "uint256"
        },
        {
          "internalType": "uint256",
          "name": "liquidity",
          "type": "uint256"
        }
      ],
      "stateMutability": "nonpayable",
      "type": "function"
    },
    {
      "inputs": [
        {
          "internalType": "address",
          "name": "owner",
          "type": "address"
        },
        {
          "internalType": "address",
          "name": "spender",
          "type": "address"
        }
      ],
      "name": "allowance",
      "outputs": [
        {
          "internalType": "uint256",
          "name": "",
          "type": "uint256"
        }
      ],
      "stateMutability": "view",
      "type": "function"
    },
    {
      "inputs": [
        {
          "internalType": "address",
          "name": "spender",
          "type": "address"
        },
        {
          "internalType": "uint256",
          "name": "value",
          "type": "uint256"
        }
      ],
      "name": "approve",
      "outputs": [
        {
          "internalType": "bool",
          "name": "",
          "type": "bool"
        }
      ],
      "stateMutability": "nonpayable",
      "type": "function"
    },
    {
      "inputs": [
        {
          "internalType": "address",
          "name": "account",
          "type": "address"
        }
      ],
      "name": "balanceOf",
      "outputs": [
        {
          "internalType": "uint256",
          "name": "",
          "type": "uint256"
        }
      ],
      "stateMutability": "view",
      "type": "function"
    },
    {
      "inputs": [],
      "name": "decimals",
      "outputs": [
        {
          "internalType": "uint8",
          "name": "",
          "type": "uint8"
        }
      ],
      "stateMutability": "view",
      "type": "function"
    },
    {
      "inputs": [
        {
          "internalType": "uint256",
          "name": "amountIn",
          "type": "uint256"
        },
        {
          "internalType": "uint256",
          "name": "reserveIn",
          "type": "uint256"
        },
        {
          "internalType": "uint256",
          "name": "reserveOut",
          "type": "uint256"
        }
      ],
      "name": "getAmountOut",
      "outputs": [
        {
          "internalType": "uint256",
          "name": "amount",
          "type": "uint256"
        }
      ],
      "stateMutability": "pure",
      "type": "function"
    },
    {
      "inputs": [
        {
          "internalType": "address",
          "name": "tokenA",
          "type": "address"
        },
        {
          "internalType": "address",
          "name": "tokenB",
          "type": "address"
        }
      ],
      "name": "getPrice",
      "outputs": [
        {
          "internalType": "uint256",
          "name": "price",
          "type": "uint256"
        }
      ],
      "stateMutability": "view",
      "type": "function"
    },
    {
      "inputs": [],
      "name": "name",
      "outputs": [
        {
          "internalType": "string",
          "name": "",
          "type": "string"
        }
      ],
      "stateMutability": "view",
      "type": "function"
    },
    {
      "inputs": [
        {
          "internalType": "address",
          "name": "tokenA",
          "type": "address"
        },
        {
          "internalType": "address",
          "name": "tokenB",
          "type": "address"
        },
        {
          "internalType": "uint256",
          "name": "liquidity",
          "type": "uint256"
        },
        {
          "internalType": "uint256",
          "name": "amountAMin",
          "type": "uint256"
        },
        {
          "internalType": "uint256",
          "name": "amountBMin",
          "type": "uint256"
        },
        {
          "internalType": "address",
          "name": "to",
          "type": "address"
        },
        {
          "internalType": "uint256",
          "name": "deadline",
          "type": "uint256"
        }
      ],
      "name": "removeLiquidity",
      "outputs": [
        {
          "internalType": "uint256",
          "name": "amountA",
          "type": "uint256"
        },
        {
          "internalType": "uint256",
          "name": "amountB",
          "type": "uint256"
        }
      ],
      "stateMutability": "nonpayable",
      "type": "function"
    },
    {
      "inputs": [
        {
          "internalType": "uint256",
          "name": "amountIn",
          "type": "uint256"
        },
        {
          "internalType": "uint256",
          "name": "amountOutMin",
          "type": "uint256"
        },
        {
          "internalType": "address[]",
          "name": "path",
          "type": "address[]"
        },
        {
          "internalType": "address",
          "name": "to",
          "type": "address"
        },
        {
          "internalType": "uint256",
          "name": "deadline",
          "type": "uint256"
        }
      ],
      "name": "swapExactTokensForTokens",
      "outputs": [
        {
          "internalType": "uint256[]",
          "name": "amounts",
          "type": "uint256[]"
        }
      ],
      "stateMutability": "nonpayable",
      "type": "function"
    },
    {
      "inputs": [],
      "name": "symbol",
      "outputs": [
        {
          "internalType": "string",
          "name": "",
          "type": "string"
        }
      ],
      "stateMutability": "view",
      "type": "function"
    },
    {
      "inputs": [],
      "name": "token0",
      "outputs": [
        {
          "internalType": "address",
          "name": "",
          "type": "address"
        }
      ],
      "stateMutability": "view",
      "type": "function"
    },
    {
      "inputs": [],
      "name": "token1",
      "outputs": [
        {
          "internalType": "address",
          "name": "",
          "type": "address"
        }
      ],
      "stateMutability": "view",
      "type": "function"
    },
    {
      "inputs": [],
      "name": "totalSupply",
      "outputs": [
        {
          "internalType": "uint256",
          "name": "",
          "type": "uint256"
        }
      ],
      "stateMutability": "view",
      "type": "function"
    },
    {
      "inputs": [
        {
          "internalType": "address",
          "name": "to",
          "type": "address"
        },
        {
          "internalType": "uint256",
          "name": "value",
          "type": "uint256"
        }
      ],
      "name": "transfer",
      "outputs": [
        {
          "internalType": "bool",
          "name": "",
          "type": "bool"
        }
      ],
      "stateMutability": "nonpayable",
      "type": "function"
    },
    {
      "inputs": [
        {
          "internalType": "address",
          "name": "from",
          "type": "address"
        },
        {
          "internalType": "address",
          "name": "to",
          "type": "address"
        },
        {
          "internalType": "uint256",
          "name": "value",
          "type": "uint256"
        }
      ],
      "name": "transferFrom",
      "outputs": [
        {
          "internalType": "bool",
          "name": "",
          "type": "bool"
        }
      ],
      "stateMutability": "nonpayable",
      "type": "function"
    }
  ],
  "bytecode": "0x608060405234801561001057600080fd5b506040516133c53803806133c5833981810160405281019061003291906101ac565b6040518060400160405280600981526020017f4c697175696469747900000000000000000000000000000000000000000000008152506040518060400160405280600381526020017f4c4951000000000000000000000000000000000000000000000000000000000081525081600390816100ad919061043c565b5080600490816100bd919061043c565b50505081600560006101000a81548173ffffffffffffffffffffffffffffffffffffffff021916908373ffffffffffffffffffffffffffffffffffffffff16021790555080600660006101000a81548173ffffffffffffffffffffffffffffffffffffffff021916908373ffffffffffffffffffffffffffffffffffffffff160217905550505061050e565b600080fd5b600073ffffffffffffffffffffffffffffffffffffffff82169050919050565b60006101798261014e565b9050919050565b6101898161016e565b811461019457600080fd5b50565b6000815190506101a681610180565b92915050565b600080604083850312156101c3576101c2610149565b5b60006101d185828601610197565b92505060206101e285828601610197565b9150509250929050565b600081519050919050565b7f4e487b7100000000000000000000000000000000000000000000000000000000600052604160045260246000fd5b7f4e487b7100000000000000000000000000000000000000000000000000000000600052602260045260246000fd5b6000600282049050600182168061026d57607f821691505b6020821081036102805761027f610226565b5b50919050565b60008190508160005260206000209050919050565b60006020601f8301049050919050565b600082821b905092915050565b6000600883026102e87fffffffffffffffffffffffffffffffffffffffffffffffffffffffffffffffff826102ab565b6102f286836102ab565b95508019841693508086168417925050509392505050565b6000819050919050565b6000819050919050565b600061033961033461032f8461030a565b610314565b61030a565b9050919050565b6000819050919050565b6103538361031e565b61036761035f82610340565b8484546102b8565b825550505050565b600090565b61037c61036f565b61038781848461034a565b505050565b5b818110156103ab576103a0600082610374565b60018101905061038d565b5050565b601f8211156103f0576103c181610286565b6103ca8461029b565b810160208510156103d9578190505b6103ed6103e58561029b565b83018261038c565b50505b505050565b600082821c905092915050565b6000610413600019846008026103f5565b1980831691505092915050565b600061042c8383610402565b9150826002028217905092915050565b610445826101ec565b67ffffffffffffffff81111561045e5761045d6101f7565b5b6104688254610255565b6104738282856103af565b600060209050601f8311600181146104a65760008415610494578287015190505b61049e8582610420565b865550610506565b601f1984166104b486610286565b60005b828110156104dc578489015182556001820191506020850194506020810190506104b7565b868310156104f957848901516104f5601f891682610402565b8355505b6001600288020188555050505b505050505050565b612ea88061051d6000396000f3fe608060405234801561001057600080fd5b50600436106101005760003560e01c806370a0823111610097578063baa2abde11610066578063baa2abde146102eb578063d21220a71461031c578063dd62ed3e1461033a578063e8e337001461036a57610100565b806370a082311461023d57806395d89b411461026d578063a9059cbb1461028b578063ac41865a146102bb57610100565b806318160ddd116100d357806318160ddd146101a157806323b872dd146101bf578063313ce567146101ef57806338ed17391461020d57610100565b8063054d50d41461010557806306fdde0314610135578063095ea7b3146101535780630dfe168114610183575b600080fd5b61011f600480360381019061011a9190612227565b61039c565b60405161012c9190612289565b60405180910390f35b61013d61042a565b60405161014a9190612334565b60405180910390f35b61016d600480360381019061016891906123b4565b6104bc565b60405161017a919061240f565b60405180910390f35b61018b6104df565b6040516101989190612439565b60405180910390f35b6101a9610505565b6040516101b69190612289565b60405180910390f35b6101d960048036038101906101d49190612454565b61050f565b6040516101e6919061240f565b60405180910390f35b6101f761053e565b60405161020491906124c3565b60405180910390f35b61022760048036038101906102229190612543565b610547565b604051610234919061269b565b60405180910390f35b610257600480360381019061025291906126bd565b6108af565b6040516102649190612289565b60405180910390f35b6102756108f7565b6040516102829190612334565b60405180910390f35b6102a560048036038101906102a091906123b4565b610989565b6040516102b2919061240f565b60405180910390f35b6102d560048036038101906102d091906126ea565b6109ac565b6040516102e29190612289565b60405180910390f35b6103056004803603810190610300919061272a565b610ad2565b6040516103139291906127cc565b60405180910390f35b610324610d8f565b6040516103319190612439565b60405180910390f35b610354600480360381019061034f91906126ea565b610db5565b6040516103619190612289565b60405180910390f35b610384600480360381019061037f91906127f5565b610e3c565b604051610393939291906128ab565b60405180910390f35b60008082856103ab9190612911565b9050600084866103bb9190612953565b905060008111610400576040517f08c379a00000000000000000000000000000000000000000000000000000000081526004016103f7906129d3565b60405180910390fd5b80670de0b6b3a7640000836104159190612911565b61041f9190612a22565b925050509392505050565b60606003805461043990612a82565b80601f016020809104026020016040519081016040528092919081815260200182805461046590612a82565b80156104b25780601f10610487576101008083540402835291602001916104b2565b820191906000526020600020905b81548152906001019060200180831161049557829003601f168201915b5050505050905090565b6000806104c761117c565b90506104d4818585611184565b600191505092915050565b600560009054906101000a900473ffffffffffffffffffffffffffffffffffffffff1681565b6000600254905090565b60008061051a61117c565b9050610527858285611196565b61053285858561122b565b60019150509392505050565b60006012905090565b60606000600560009054906101000a900473ffffffffffffffffffffffffffffffffffffffff1690506000600660009054906101000a900473ffffffffffffffffffffffffffffffffffffffff169050428410156105da576040517f08c379a00000000000000000000000000000000000000000000000000000000081526004016105d190612aff565b60405180910390fd5b60028787905014610620576040517f08c379a000000000000000000000000000000000000000000000000000000000815260040161061790612b6b565b60405180910390fd5b61062861213f565b8787600081811061063c5761063b612b8b565b5b905060200201602081019061065191906126bd565b816000019073ffffffffffffffffffffffffffffffffffffffff16908173ffffffffffffffffffffffffffffffffffffffff16815250508787600181811061069c5761069b612b8b565b5b90506020020160208101906106b191906126bd565b816020019073ffffffffffffffffffffffffffffffffffffffff16908173ffffffffffffffffffffffffffffffffffffffff1681525050898160400181815250508273ffffffffffffffffffffffffffffffffffffffff16816000015173ffffffffffffffffffffffffffffffffffffffff1614801561076057508173ffffffffffffffffffffffffffffffffffffffff16816020015173ffffffffffffffffffffffffffffffffffffffff16145b806107d557508173ffffffffffffffffffffffffffffffffffffffff16816000015173ffffffffffffffffffffffffffffffffffffffff161480156107d457508273ffffffffffffffffffffffffffffffffffffffff16816020015173ffffffffffffffffffffffffffffffffffffffff16145b5b610814576040517f08c379a000000000000000000000000000000000000000000000000000000000815260040161080b90612c06565b60405180910390fd5b61081d8161131f565b610834816040015182608001518360a0015161039c565b8160600181815250508881606001511015610884576040517f08c379a000000000000000000000000000000000000000000000000000000000815260040161087b90612c72565b60405180910390fd5b61088e8187611430565b6108a08160400151826060015161149c565b93505050509695505050505050565b60008060008373ffffffffffffffffffffffffffffffffffffffff1673ffffffffffffffffffffffffffffffffffffffff168152602001908152602001600020549050919050565b60606004805461090690612a82565b80601f016020809104026020016040519081016040528092919081815260200182805461093290612a82565b801561097f5780601f106109545761010080835404028352916020019161097f565b820191906000526020600020905b81548152906001019060200180831161096257829003601f168201915b5050505050905090565b60008061099461117c565b90506109a181858561122b565b600191505092915050565b6000808373ffffffffffffffffffffffffffffffffffffffff166370a08231306040518263ffffffff1660e01b81526004016109e89190612439565b602060405180830381865afa158015610a05573d6000803e3d6000fd5b505050506040513d601f19601f82011682018060405250810190610a299190612ca7565b905060008373ffffffffffffffffffffffffffffffffffffffff166370a08231306040518263ffffffff1660e01b8152600401610a669190612439565b602060405180830381865afa158015610a83573d6000803e3d6000fd5b505050506040513d601f19601f82011682018060405250810190610aa79190612ca7565b905081670de0b6b3a764000082610abe9190612911565b610ac89190612a22565b9250505092915050565b6000806000600560009054906101000a900473ffffffffffffffffffffffffffffffffffffffff1690506000600660009054906101000a900473ffffffffffffffffffffffffffffffffffffffff16905042851015610b66576040517f08c379a0000000000000000000000000000000000000000000000000000000008152600401610b5d90612aff565b60405180910390fd5b8173ffffffffffffffffffffffffffffffffffffffff168b73ffffffffffffffffffffffffffffffffffffffff16148015610bcc57508073ffffffffffffffffffffffffffffffffffffffff168a73ffffffffffffffffffffffffffffffffffffffff16145b80610c3957508073ffffffffffffffffffffffffffffffffffffffff168b73ffffffffffffffffffffffffffffffffffffffff16148015610c3857508173ffffffffffffffffffffffffffffffffffffffff168a73ffffffffffffffffffffffffffffffffffffffff16145b5b610c78576040517f08c379a0000000000000000000000000000000000000000000000000000000008152600401610c6f90612c06565b60405180910390fd5b610c806121a1565b8b816000019073ffffffffffffffffffffffffffffffffffffffff16908173ffffffffffffffffffffffffffffffffffffffff16815250508a816020019073ffffffffffffffffffffffffffffffffffffffff16908173ffffffffffffffffffffffffffffffffffffffff1681525050610d038a82600001518360200151611532565b8095508196505050610d1785858b8b61167a565b610d2e33888c888886600001518760200151611706565b3373ffffffffffffffffffffffffffffffffffffffff167f1dc8bb69df2b8e91fbdcbfcf93d951b3f0000f085a95fe3f7946d6161439245d86868d604051610d78939291906128ab565b60405180910390a250505097509795505050505050565b600660009054906101000a900473ffffffffffffffffffffffffffffffffffffffff1681565b6000600160008473ffffffffffffffffffffffffffffffffffffffff1673ffffffffffffffffffffffffffffffffffffffff16815260200190815260200160002060008373ffffffffffffffffffffffffffffffffffffffff1673ffffffffffffffffffffffffffffffffffffffff16815260200190815260200160002054905092915050565b600080600080600560009054906101000a900473ffffffffffffffffffffffffffffffffffffffff1690506000600660009054906101000a900473ffffffffffffffffffffffffffffffffffffffff16905042861015610ed1576040517f08c379a0000000000000000000000000000000000000000000000000000000008152600401610ec890612aff565b60405180910390fd5b8173ffffffffffffffffffffffffffffffffffffffff168d73ffffffffffffffffffffffffffffffffffffffff16148015610f3757508073ffffffffffffffffffffffffffffffffffffffff168c73ffffffffffffffffffffffffffffffffffffffff16145b80610fa457508073ffffffffffffffffffffffffffffffffffffffff168d73ffffffffffffffffffffffffffffffffffffffff16148015610fa357508173ffffffffffffffffffffffffffffffffffffffff168c73ffffffffffffffffffffffffffffffffffffffff16145b5b610fe3576040517f08c379a0000000000000000000000000000000000000000000000000000000008152600401610fda90612c06565b60405180910390fd5b60008d73ffffffffffffffffffffffffffffffffffffffff166370a08231306040518263ffffffff1660e01b815260040161101e9190612439565b602060405180830381865afa15801561103b573d6000803e3d6000fd5b505050506040513d601f19601f8201168201806040525081019061105f9190612ca7565b905060008d73ffffffffffffffffffffffffffffffffffffffff166370a08231306040518263ffffffff1660e01b815260040161109c9190612439565b602060405180830381865afa1580156110b9573d6000803e3d6000fd5b505050506040513d601f19601f820116820180604052508101906110dd9190612ca7565b90506110ed8d8d8d8d868661176f565b80975081985050506111028f8f89898d611875565b61111686886111119190612911565b6118f3565b94503373ffffffffffffffffffffffffffffffffffffffff167f64b83944e79c3ce8d4c297411de637c3e102d064677aac0c163976ebdcd6f50e888888604051611162939291906128ab565b60405180910390a250505050985098509895505050505050565b600033905090565b6111918383836001611a90565b505050565b60006111a28484610db5565b90507fffffffffffffffffffffffffffffffffffffffffffffffffffffffffffffffff8110156112255781811015611215578281836040517ffb8f41b200000000000000000000000000000000000000000000000000000000815260040161120c93929190612cd4565b60405180910390fd5b61122484848484036000611a90565b5b50505050565b600073ffffffffffffffffffffffffffffffffffffffff168373ffffffffffffffffffffffffffffffffffffffff160361129d5760006040517f96c6fd1e0000000000000000000000000000000000000000000000000000000081526004016112949190612439565b60405180910390fd5b600073ffffffffffffffffffffffffffffffffffffffff168273ffffffffffffffffffffffffffffffffffffffff160361130f5760006040517fec442f050000000000000000000000000000000000000000000000000000000081526004016113069190612439565b60405180910390fd5b61131a838383611c67565b505050565b806000015173ffffffffffffffffffffffffffffffffffffffff166370a08231306040518263ffffffff1660e01b815260040161135c9190612439565b602060405180830381865afa158015611379573d6000803e3d6000fd5b505050506040513d601f19601f8201168201806040525081019061139d9190612ca7565b816080018181525050806020015173ffffffffffffffffffffffffffffffffffffffff166370a08231306040518263ffffffff1660e01b81526004016113e39190612439565b602060405180830381865afa158015611400573d6000803e3d6000fd5b505050506040513d601f19601f820116820180604052508101906114249190612ca7565b8160a001818152505050565b61146533308460400151856000015173ffffffffffffffffffffffffffffffffffffffff16611e8c909392919063ffffffff16565b611498818360600151846020015173ffffffffffffffffffffffffffffffffffffffff16611f0e9092919063ffffffff16565b5050565b6060600267ffffffffffffffff8111156114b9576114b8612d0b565b5b6040519080825280602002602001820160405280156114e75781602001602082028036833780820191505090505b50905082816000815181106114ff576114fe612b8b565b5b60200260200101818152505081816001815181106115205761151f612b8b565b5b60200260200101818152505092915050565b60008060008473ffffffffffffffffffffffffffffffffffffffff166370a08231306040518263ffffffff1660e01b81526004016115709190612439565b602060405180830381865afa15801561158d573d6000803e3d6000fd5b505050506040513d601f19601f820116820180604052508101906115b19190612ca7565b905060008473ffffffffffffffffffffffffffffffffffffffff166370a08231306040518263ffffffff1660e01b81526004016115ee9190612439565b602060405180830381865afa15801561160b573d6000803e3d6000fd5b505050506040513d601f19601f8201168201806040525081019061162f9190612ca7565b9050600061163b610505565b905080838961164a9190612911565b6116549190612a22565b81838a6116619190612911565b61166b9190612a22565b94509450505050935093915050565b818410156116bd576040517f08c379a00000000000000000000000000000000000000000000000000000000081526004016116b490612d86565b60405180910390fd5b80831015611700576040517f08c379a00000000000000000000000000000000000000000000000000000000081526004016116f790612df2565b60405180910390fd5b50505050565b6117108786611f8d565b61173b86858473ffffffffffffffffffffffffffffffffffffffff16611f0e9092919063ffffffff16565b61176686848373ffffffffffffffffffffffffffffffffffffffff16611f0e9092919063ffffffff16565b50505050505050565b6000806000841480156117825750600083145b156117925787879150915061186a565b600084848a6117a19190612911565b6117ab9190612a22565b905087811161180357858110156117f7576040517f08c379a00000000000000000000000000000000000000000000000000000000081526004016117ee90612df2565b60405180910390fd5b8881925092505061186a565b600084868a6118129190612911565b61181c9190612a22565b905087811015611861576040517f08c379a000000000000000000000000000000000000000000000000000000000815260040161185890612d86565b60405180910390fd5b80899350935050505b965096945050505050565b6118a23330858873ffffffffffffffffffffffffffffffffffffffff16611e8c909392919063ffffffff16565b6118cf3330848773ffffffffffffffffffffffffffffffffffffffff16611e8c909392919063ffffffff16565b6118ec816118e784866118e29190612911565b6118f3565b61200f565b5050505050565b60006001821161190557819050611a8b565b6000829050600060019050700100000000000000000000000000000000821061193757608082901c9150604081901b90505b68010000000000000000821061195657604082901c9150602081901b90505b640100000000821061197157602082901c9150601081901b90505b62010000821061198a57601082901c9150600881901b90505b61010082106119a257600882901c9150600481901b90505b601082106119b957600482901c9150600281901b90505b600482106119c957600181901b90505b600181600302901c905060018185816119e5576119e46129f3565b5b048201901c905060018185816119fe576119fd6129f3565b5b048201901c90506001818581611a1757611a166129f3565b5b048201901c90506001818581611a3057611a2f6129f3565b5b048201901c90506001818581611a4957611a486129f3565b5b048201901c90506001818581611a6257611a616129f3565b5b048201901c9050611a84818581611a7c57611a7b6129f3565b5b048211612091565b8103925050505b919050565b600073ffffffffffffffffffffffffffffffffffffffff168473ffffffffffffffffffffffffffffffffffffffff1603611b025760006040517fe602df05000000000000000000000000000000000000000000000000000000008152600401611af99190612439565b60405180910390fd5b600073ffffffffffffffffffffffffffffffffffffffff168373ffffffffffffffffffffffffffffffffffffffff1603611b745760006040517f94280d62000000000000000000000000000000000000000000000000000000008152600401611b6b9190612439565b60405180910390fd5b81600160008673ffffffffffffffffffffffffffffffffffffffff1673ffffffffffffffffffffffffffffffffffffffff16815260200190815260200160002060008573ffffffffffffffffffffffffffffffffffffffff1673ffffffffffffffffffffffffffffffffffffffff168152602001908152602001600020819055508015611c61578273ffffffffffffffffffffffffffffffffffffffff168473ffffffffffffffffffffffffffffffffffffffff167f8c5be1e5ebec7d5bd14f71427d1e84f3dd0314c0f7b2291e5b200ac8c7c3b92584604051611c589190612289565b60405180910390a35b50505050565b600073ffffffffffffffffffffffffffffffffffffffff168373ffffffffffffffffffffffffffffffffffffffff1603611cb9578060026000828254611cad9190612953565b92505081905550611d8c565b60008060008573ffffffffffffffffffffffffffffffffffffffff1673ffffffffffffffffffffffffffffffffffffffff16815260200190815260200160002054905081811015611d45578381836040517fe450d38c000000000000000000000000000000000000000000000000000000008152600401611d3c93929190612cd4565b60405180910390fd5b8181036000808673ffffffffffffffffffffffffffffffffffffffff1673ffffffffffffffffffffffffffffffffffffffff16815260200190815260200160002081905550505b600073ffffffffffffffffffffffffffffffffffffffff168273ffffffffffffffffffffffffffffffffffffffff1603611dd55780600260008282540392505081905550611e22565b806000808473ffffffffffffffffffffffffffffffffffffffff1673ffffffffffffffffffffffffffffffffffffffff168152602001908152602001600020600082825401925050819055505b8173ffffffffffffffffffffffffffffffffffffffff168373ffffffffffffffffffffffffffffffffffffffff167fddf252ad1be2c89b69c2b068fc378daa952ba7f163c4a11628f55a4df523b3ef83604051611e7f9190612289565b60405180910390a3505050565b611f08848573ffffffffffffffffffffffffffffffffffffffff166323b872dd868686604051602401611ec193929190612e12565b604051602081830303815290604052915060e01b6020820180517bffffffffffffffffffffffffffffffffffffffffffffffffffffffff838183161783525050505061209d565b50505050565b611f88838473ffffffffffffffffffffffffffffffffffffffff1663a9059cbb8585604051602401611f41929190612e49565b604051602081830303815290604052915060e01b6020820180517bffffffffffffffffffffffffffffffffffffffffffffffffffffffff838183161783525050505061209d565b505050565b600073ffffffffffffffffffffffffffffffffffffffff168273ffffffffffffffffffffffffffffffffffffffff1603611fff5760006040517f96c6fd1e000000000000000000000000000000000000000000000000000000008152600401611ff69190612439565b60405180910390fd5b61200b82600083611c67565b5050565b600073ffffffffffffffffffffffffffffffffffffffff168273ffffffffffffffffffffffffffffffffffffffff16036120815760006040517fec442f050000000000000000000000000000000000000000000000000000000081526004016120789190612439565b60405180910390fd5b61208d60008383611c67565b5050565b60008115159050919050565b600080602060008451602086016000885af1806120c0576040513d6000823e3d81fd5b3d9250600051915050600082146120db5760018114156120f7565b60008473ffffffffffffffffffffffffffffffffffffffff163b145b1561213957836040517f5274afe70000000000000000000000000000000000000000000000000000000081526004016121309190612439565b60405180910390fd5b50505050565b6040518060c00160405280600073ffffffffffffffffffffffffffffffffffffffff168152602001600073ffffffffffffffffffffffffffffffffffffffff168152602001600081526020016000815260200160008152602001600081525090565b6040518060400160405280600073ffffffffffffffffffffffffffffffffffffffff168152602001600073ffffffffffffffffffffffffffffffffffffffff1681525090565b600080fd5b600080fd5b6000819050919050565b612204816121f1565b811461220f57600080fd5b50565b600081359050612221816121fb565b92915050565b6000806000606084860312156122405761223f6121e7565b5b600061224e86828701612212565b935050602061225f86828701612212565b925050604061227086828701612212565b9150509250925092565b612283816121f1565b82525050565b600060208201905061229e600083018461227a565b92915050565b600081519050919050565b600082825260208201905092915050565b60005b838110156122de5780820151818401526020810190506122c3565b60008484015250505050565b6000601f19601f8301169050919050565b6000612306826122a4565b61231081856122af565b93506123208185602086016122c0565b612329816122ea565b840191505092915050565b6000602082019050818103600083015261234e81846122fb565b905092915050565b600073ffffffffffffffffffffffffffffffffffffffff82169050919050565b600061238182612356565b9050919050565b61239181612376565b811461239c57600080fd5b50565b6000813590506123ae81612388565b92915050565b600080604083850312156123cb576123ca6121e7565b5b60006123d98582860161239f565b92505060206123ea85828601612212565b9150509250929050565b60008115159050919050565b612409816123f4565b82525050565b60006020820190506124246000830184612400565b92915050565b61243381612376565b82525050565b600060208201905061244e600083018461242a565b92915050565b60008060006060848603121561246d5761246c6121e7565b5b600061247b8682870161239f565b935050602061248c8682870161239f565b925050604061249d86828701612212565b9150509250925092565b600060ff82169050919050565b6124bd816124a7565b82525050565b60006020820190506124d860008301846124b4565b92915050565b600080fd5b600080fd5b600080fd5b60008083601f840112612503576125026124de565b5b8235905067ffffffffffffffff8111156125205761251f6124e3565b5b60208301915083602082028301111561253c5761253b6124e8565b5b9250929050565b60008060008060008060a087890312156125605761255f6121e7565b5b600061256e89828a01612212565b965050602061257f89828a01612212565b955050604087013567ffffffffffffffff8111156125a05761259f6121ec565b5b6125ac89828a016124ed565b945094505060606125bf89828a0161239f565b92505060806125d089828a01612212565b9150509295509295509295565b600081519050919050565b600082825260208201905092915050565b6000819050602082019050919050565b612612816121f1565b82525050565b60006126248383612609565b60208301905092915050565b6000602082019050919050565b6000612648826125dd565b61265281856125e8565b935061265d836125f9565b8060005b8381101561268e5781516126758882612618565b975061268083612630565b925050600181019050612661565b5085935050505092915050565b600060208201905081810360008301526126b5818461263d565b905092915050565b6000602082840312156126d3576126d26121e7565b5b60006126e18482850161239f565b91505092915050565b60008060408385031215612701576127006121e7565b5b600061270f8582860161239f565b92505060206127208582860161239f565b9150509250929050565b600080600080600080600060e0888a031215612749576127486121e7565b5b60006127578a828b0161239f565b97505060206127688a828b0161239f565b96505060406127798a828b01612212565b955050606061278a8a828b01612212565b945050608061279b8a828b01612212565b93505060a06127ac8a828b0161239f565b92505060c06127bd8a828b01612212565b91505092959891949750929550565b60006040820190506127e1600083018561227a565b6127ee602083018461227a565b9392505050565b600080600080600080600080610100898b031215612816576128156121e7565b5b60006128248b828c0161239f565b98505060206128358b828c0161239f565b97505060406128468b828c01612212565b96505060606128578b828c01612212565b95505060806128688b828c01612212565b94505060a06128798b828c01612212565b93505060c061288a8b828c0161239f565b92505060e061289b8b828c01612212565b9150509295985092959890939650565b60006060820190506128c0600083018661227a565b6128cd602083018561227a565b6128da604083018461227a565b949350505050565b7f4e487b7100000000000000000000000000000000000000000000000000000000600052601160045260246000fd5b600061291c826121f1565b9150612927836121f1565b9250828202612935816121f1565b9150828204841483151761294c5761294b6128e2565b5b5092915050565b600061295e826121f1565b9150612969836121f1565b9250828201905080821115612981576129806128e2565b5b92915050565b7f4e6f206469766973696f6e000000000000000000000000000000000000000000600082015250565b60006129bd600b836122af565b91506129c882612987565b602082019050919050565b600060208201905081810360008301526129ec816129b0565b9050919050565b7f4e487b7100000000000000000000000000000000000000000000000000000000600052601260045260246000fd5b6000612a2d826121f1565b9150612a38836121f1565b925082612a4857612a476129f3565b5b828204905092915050565b7f4e487b7100000000000000000000000000000000000000000000000000000000600052602260045260246000fd5b60006002820490506001821680612a9a57607f821691505b602082108103612aad57612aac612a53565b5b50919050565b7f446561646c696e65207061737365640000000000000000000000000000000000600082015250565b6000612ae9600f836122af565b9150612af482612ab3565b602082019050919050565b60006020820190508181036000830152612b1881612adc565b9050919050565b7f496e76616c696420706174680000000000000000000000000000000000000000600082015250565b6000612b55600c836122af565b9150612b6082612b1f565b602082019050919050565b60006020820190508181036000830152612b8481612b48565b9050919050565b7f4e487b7100000000000000000000000000000000000000000000000000000000600052603260045260246000fd5b7f496e76616c696420746f6b656e73000000000000000000000000000000000000600082015250565b6000612bf0600e836122af565b9150612bfb82612bba565b602082019050919050565b60006020820190508181036000830152612c1f81612be3565b9050919050565b7f496e73756666696369656e74206f757470757420616d6f756e74000000000000600082015250565b6000612c5c601a836122af565b9150612c6782612c26565b602082019050919050565b60006020820190508181036000830152612c8b81612c4f565b9050919050565b600081519050612ca1816121fb565b92915050565b600060208284031215612cbd57612cbc6121e7565b5b6000612ccb84828501612c92565b91505092915050565b6000606082019050612ce9600083018661242a565b612cf6602083018561227a565b612d03604083018461227a565b949350505050565b7f4e487b7100000000000000000000000000000000000000000000000000000000600052604160045260246000fd5b7f496e73756666696369656e74204120616d6f756e740000000000000000000000600082015250565b6000612d706015836122af565b9150612d7b82612d3a565b602082019050919050565b60006020820190508181036000830152612d9f81612d63565b9050919050565b7f496e73756666696369656e74204220616d6f756e740000000000000000000000600082015250565b6000612ddc6015836122af565b9150612de782612da6565b602082019050919050565b60006020820190508181036000830152612e0b81612dcf565b9050919050565b6000606082019050612e27600083018661242a565b612e34602083018561242a565b612e41604083018461227a565b949350505050565b6000604082019050612e5e600083018561242a565b612e6b602083018461227a565b939250505056fea2646970667358221220d7a9e9089a931eddc180bd3efd03e68c2411182d4f29d1934a46b7e4337a180d64736f6c634300081c0033",
  "linkReferences": {},
  "deployedLinkReferences": {}
}